20250910-00:02:34.713753 : 8=FIX.4.2^A9=330^A35=8^A34=1962^A49=ID1^A52=20250910-04:02:34.713^A56=ID2^A1=ID6^A6=32.98^A11=ID3^A14=10^A17=ID5^A20=0^A30=ID7^A31=32.98^A32=10^A37=ID4^A38=10^A39=2^A40=2^A44=32.98^A54=2^A55=SMCX^A59=0^A60=20250910-04:02:34.713^A76=ID8^A150=2^A151=0^A10=235^A$
20250910-00:06:14.467988 : 8=FIX.4.2^A9=330^A35=8^A34=1979^A49=ID1^A52=20250910-04:06:14.467^A56=ID2^A1=ID12^A6=105.79^A11=ID9^A14=5^A17=ID11^A20=0^A30=ID7^A31=105.79^A32=5^A37=ID10^A38=5^A39=2^A40=2^A44=105.79^A54=1^A55=CRWV^A59=0^A60=20250910-04:06:14.467^A76=ID8^A150=2^A151=0^A10=046^A$
20250910-00:06:27.983290 : 8=FIX.4.2^A9=333^A35=8^A34=1982^A49=ID1^A52=20250910-04:06:27.983^A56=ID2^A1=ID16^A6=347.61^A11=ID13^A14=23^A17=ID15^A20=0^A30=ID7^A31=347.61^A32=23^A37=ID14^A38=23^A39=2^A40=2^A44=347.61^A54=2^A55=TSLA^A59=0^A60=20250910-04:06:27.982^A76=ID8^A150=2^A151=0^A10=176^A$
20250910-00:06:49.075891 : 8=FIX.4.2^A9=330^A35=8^A34=1985^A49=ID1^A52=20250910-04:06:49.075^A56=ID2^A1=ID12^A6=164.4^A11=ID17^A14=10^A17=ID19^A20=0^A30=ID7^A31=164.4^A32=10^A37=ID18^A38=10^A39=2^A40=2^A44=164.4^A54=1^A55=PLTR^A59=0^A60=20250910-04:06:49.075^A76=ID8^A150=2^A151=0^A10=014^A$
20250910-00:07:12.533583 : 8=FIX.4.2^A9=332^A35=8^A34=1988^A49=ID1^A52=20250910-04:07:12.533^A56=ID2^A1=ID12^A6=25.91^A11=ID20^A14=69^A17=ID22^A20=0^A30=ID7^A31=25.91^A32=69^A37=ID21^A38=100^A39=1^A40=2^A44=25.91^A54=1^A55=SOFI^A59=0^A60=20250910-04:07:12.532^A76=ID8^A150=1^A151=31^A10=108^A$
20250910-00:07:12.533661 : 8=FIX.4.2^A9=332^A35=8^A34=1989^A49=ID1^A52=20250910-04:07:12.533^A56=ID2^A1=ID12^A6=25.91^A11=ID20^A14=100^A17=ID23^A20=0^A30=ID7^A31=25.91^A32=31^A37=ID21^A38=100^A39=2^A40=2^A44=25.91^A54=1^A55=SOFI^A59=0^A60=20250910-04:07:12.532^A76=ID8^A150=2^A151=0^A10=075^A$
20250910-00:09:58.145551 : 8=FIX.4.2^A9=330^A35=8^A34=2004^A49=ID1^A52=20250910-04:09:58.145^A56=ID2^A1=ID27^A6=174.14^A11=ID24^A14=1^A17=ID26^A20=0^A30=ID7^A31=174.14^A32=1^A37=ID25^A38=5^A39=1^A40=2^A44=174.14^A54=1^A55=NVDA^A59=0^A60=20250910-04:09:58.145^A76=ID8^A150=1^A151=4^A10=206^A$
20250910-00:10:49.187631 : 8=FIX.4.2^A9=327^A35=8^A34=2017^A49=ID1^A52=20250910-04:10:49.187^A56=ID2^A1=ID31^A6=105.9^A11=ID28^A14=1^A17=ID30^A20=0^A30=ID7^A31=105.9^A32=1^A37=ID29^A38=1^A39=2^A40=2^A44=105.9^A54=1^A55=CRWV^A59=0^A60=20250910-04:10:49.187^A76=ID8^A150=2^A151=0^A10=062^A$
